{"abi":[{"type":"fallback","stateMutability":"payable"},{"type":"receive","stateMutability":"payable"},{"type":"function","name":"forward","inputs":[{"name":"target","type":"address","internalType":"address"},{"name":"data","type":"bytes","internalType":"bytes"}],"outputs":[{"name":"success","type":"bool","internalType":"bool"},{"name":"returnData","type":"bytes","internalType":"bytes"}],"stateMutability":"nonpayable"}],"bytecode":{"object":"0x6080604052348015600e575f5ffd5b5061045c8061001c5f395ff3fe608060405260043610610021575f3560e01c80636fadcf721461002457610022565b5b005b34801561002f575f5ffd5b5061004a6004803603810190610045919061021f565b610061565b604051610058929190610306565b60405180910390f35b5f606073ff0000000000000000000000000000000000000273ffffffffffffffffffffffffffffffffffffffff163373ffffffffffffffffffffffffffffffffffffffff16146100e6576040517f08c379a00000000000000000000000000000000000000000000000000000000081526004016100dd906103b4565b60405180910390fd5b8473ffffffffffffffffffffffffffffffffffffffff16848460405161010d92919061040e565b5f604051808303815f865af19150503d805f8114610146576040519150601f19603f3d011682016040523d82523d5f602084013e61014b565b606091505b508092508193505050935093915050565b5f5ffd5b5f5ffd5b5f73ffffffffffffffffffffffffffffffffffffffff82169050919050565b5f61018d82610164565b9050919050565b61019d81610183565b81146101a7575f5ffd5b50565b5f813590506101b881610194565b92915050565b5f5ffd5b5f5ffd5b5f5ffd5b5f5f83601f8401126101df576101de6101be565b5b8235905067ffffffffffffffff8111156101fc576101fb6101c2565b5b602083019150836001820283011115610218576102176101c6565b5b9250929050565b5f5f5f604084860312156102365761023561015c565b5b5f610243868287016101aa565b935050602084013567ffffffffffffffff81111561026457610263610160565b5b610270868287016101ca565b92509250509250925092565b5f8115159050919050565b6102908161027c565b82525050565b5f81519050919050565b5f82825260208201905092915050565b8281835e5f83830152505050565b5f601f19601f8301169050919050565b5f6102d882610296565b6102e281856102a0565b93506102f28185602086016102b0565b6102fb816102be565b840191505092915050565b5f6040820190506103195f830185610287565b818103602083015261032b81846102ce565b90509392505050565b5f82825260208201905092915050565b7f496e7465726e616c466f727761726465723a20756e617574686f72697a6564205f8201527f63616c6c65720000000000000000000000000000000000000000000000000000602082015250565b5f61039e602683610334565b91506103a982610344565b604082019050919050565b5f6020820190508181035f8301526103cb81610392565b9050919050565b5f81905092915050565b828183375f83830152505050565b5f6103f583856103d2565b93506104028385846103dc565b82840190509392505050565b5f61041a8284866103ea565b9150819050939250505056fea2646970667358221220f8f1230872fc0e8cc0d5a776a03f70b9e5d62ff7b279ce5b93a70595ef603d1364736f6c634300081d0033","linkReferences":{}},"methodIdentifiers":{"forward(address,bytes)":"6fadcf72"},"id":0}