{"abi":[{"type":"function","name":"TICKET_TABLE","inputs":[],"outputs":[{"name":"","type":"address","internalType":"address"}],"stateMutability":"view"},{"type":"function","name":"forward","inputs":[{"name":"target","type":"address","internalType":"address"},{"name":"data","type":"bytes","internalType":"bytes"}],"outputs":[{"name":"success","type":"bool","internalType":"bool"},{"name":"returnData","type":"bytes","internalType":"bytes"}],"stateMutability":"nonpayable"}],"bytecode":{"object":"0x6080604052348015600e575f5ffd5b506104c28061001c5f395ff3fe608060405234801561000f575f5ffd5b5060043610610034575f3560e01c806324d8dae9146100385780636fadcf7214610056575b5f5ffd5b610040610087565b60405161004d91906101d9565b60405180910390f35b610070600480360381019061006b9190610285565b61009f565b60405161007e92919061036c565b60405180910390f35b73ff0000000000000000000000000000000000000481565b5f606073ff0000000000000000000000000000000000000473ffffffffffffffffffffffffffffffffffffffff163373ffffffffffffffffffffffffffffffffffffffff1614610124576040517f08c379a000000000000000000000000000000000000000000000000000000000815260040161011b9061041a565b60405180910390fd5b8473ffffffffffffffffffffffffffffffffffffffff16848460405161014b929190610474565b5f604051808303815f865af19150503d805f8114610184576040519150601f19603f3d011682016040523d82523d5f602084013e610189565b606091505b508092508193505050935093915050565b5f73ffffffffffffffffffffffffffffffffffffffff82169050919050565b5f6101c38261019a565b9050919050565b6101d3816101b9565b82525050565b5f6020820190506101ec5f8301846101ca565b92915050565b5f5ffd5b5f5ffd5b610203816101b9565b811461020d575f5ffd5b50565b5f8135905061021e816101fa565b92915050565b5f5ffd5b5f5ffd5b5f5ffd5b5f5f83601f84011261024557610244610224565b5b8235905067ffffffffffffffff81111561026257610261610228565b5b60208301915083600182028301111561027e5761027d61022c565b5b9250929050565b5f5f5f6040848603121561029c5761029b6101f2565b5b5f6102a986828701610210565b935050602084013567ffffffffffffffff8111156102ca576102c96101f6565b5b6102d686828701610230565b92509250509250925092565b5f8115159050919050565b6102f6816102e2565b82525050565b5f81519050919050565b5f82825260208201905092915050565b8281835e5f83830152505050565b5f601f19601f8301169050919050565b5f61033e826102fc565b6103488185610306565b9350610358818560208601610316565b61036181610324565b840191505092915050565b5f60408201905061037f5f8301856102ed565b81810360208301526103918184610334565b90509392505050565b5f82825260208201905092915050565b7f496e7465726e616c466f727761726465723a20756e617574686f72697a6564205f8201527f63616c6c65720000000000000000000000000000000000000000000000000000602082015250565b5f61040460268361039a565b915061040f826103aa565b604082019050919050565b5f6020820190508181035f830152610431816103f8565b9050919050565b5f81905092915050565b828183375f83830152505050565b5f61045b8385610438565b9350610468838584610442565b82840190509392505050565b5f610480828486610450565b9150819050939250505056fea26469706673582212206d81580ae0a655284dd4e1d1f4df37b5a6e657bbf28c8e9c68e1050c93e7754064736f6c634300081d0033","linkReferences":{}},"methodIdentifiers":{"TICKET_TABLE()":"24d8dae9","forward(address,bytes)":"6fadcf72"},"id":0}