{"abi":[{"type":"function","name":"withdraw","inputs":[{"name":"ticketOwner","type":"address","internalType":"address"},{"name":"routingInfo","type":"bytes","internalType":"bytes"},{"name":"amount","type":"uint256","internalType":"uint256"},{"name":"ticketer","type":"bytes22","internalType":"bytes22"},{"name":"content","type":"bytes","internalType":"bytes"}],"outputs":[],"stateMutability":"payable"},{"type":"function","name":"withdrawalCounter","inputs":[],"outputs":[{"name":"","type":"uint256","internalType":"uint256"}],"stateMutability":"view"},{"type":"event","name":"SolStandardWithdrawalEvent","inputs":[{"name":"sender","type":"address","indexed":true,"internalType":"address"},{"name":"ticketOwner","type":"address","indexed":true,"internalType":"address"},{"name":"amount","type":"uint256","indexed":false,"internalType":"uint256"},{"name":"withdrawalId","type":"uint256","indexed":false,"internalType":"uint256"}],"anonymous":false}],"bytecode":{"object":"0x6080604052348015600e575f5ffd5b50610d738061001c5f395ff3fe608060405260043610610028575f3560e01c806320d786b51461002c57806380fc1fe314610056575b5f5ffd5b348015610037575f5ffd5b50610040610072565b60405161004d9190610576565b60405180910390f35b610070600480360381019061006b91906107b5565b610077565b005b5f5481565b5f73ff0000000000000000000000000000000000000390505f73ff0000000000000000000000000000000000000490505f85116100e9576040517f08c379a00000000000000000000000000000000000000000000000000000000081526004016100e0906108e4565b60405180910390fd5b5f84846040516020016100fd929190610974565b604051602081830303815290604052805190602001205f1c90505f81898860405160240161012d939291906109aa565b6040516020818303038152906040527fd93ad063000000000000000000000000000000000000000000000000000000007bffffffffffffffffffffffffffffffffffffffffffffffffffffffff19166020820180517bffffffffffffffffffffffffffffffffffffffffffffffffffffffff838183161783525050505090505f8373ffffffffffffffffffffffffffffffffffffffff16826040516101d291906109df565b5f604051808303815f865af19150503d805f811461020b576040519150601f19603f3d011682016040523d82523d5f602084013e610210565b606091505b5050905080610254576040517f08c379a000000000000000000000000000000000000000000000000000000000815260040161024b90610a8b565b60405180910390fd5b5f33898560405160240161026a93929190610aa9565b6040516020818303038152906040527fb5c5f672000000000000000000000000000000000000000000000000000000007bffffffffffffffffffffffffffffffffffffffffffffffffffffffff19166020820180517bffffffffffffffffffffffffffffffffffffffffffffffffffffffff838183161783525050505090505f8b73ffffffffffffffffffffffffffffffffffffffff168260405161030f91906109df565b5f604051808303815f865af19150503d805f8114610348576040519150601f19603f3d011682016040523d82523d5f602084013e61034d565b606091505b5050905080610391576040517f08c379a000000000000000000000000000000000000000000000000000000000815260040161038890610b28565b60405180910390fd5b5f8b8b8b8b6040516024016103a99493929190610b9d565b6040516020818303038152906040527fe9f58a77000000000000000000000000000000000000000000000000000000007bffffffffffffffffffffffffffffffffffffffffffffffffffffffff19166020820180517bffffffffffffffffffffffffffffffffffffffffffffffffffffffff838183161783525050505090505f8873ffffffffffffffffffffffffffffffffffffffff168260405161044e91906109df565b5f604051808303815f865af19150503d805f8114610487576040519150601f19603f3d011682016040523d82523d5f602084013e61048c565b606091505b50509050806104d0576040517f08c379a00000000000000000000000000000000000000000000000000000000081526004016104c790610c84565b60405180910390fd5b8d73ffffffffffffffffffffffffffffffffffffffff163373ffffffffffffffffffffffffffffffffffffffff167fa58e97edea058c8c4d08b11659ee5656328622e45b2b9864cbd10054dc1769a08e5f54604051610530929190610ca2565b60405180910390a35f5f81548092919061054990610cf6565b91905055505050505050505050505050505050565b5f819050919050565b6105708161055e565b82525050565b5f6020820190506105895f830184610567565b92915050565b5f604051905090565b5f5ffd5b5f5ffd5b5f73ffffffffffffffffffffffffffffffffffffffff82169050919050565b5f6105c9826105a0565b9050919050565b6105d9816105bf565b81146105e3575f5ffd5b50565b5f813590506105f4816105d0565b92915050565b5f5ffd5b5f5ffd5b5f601f19601f8301169050919050565b7f4e487b71000000000000000000000000000000000000000000000000000000005f52604160045260245ffd5b61064882610602565b810181811067ffffffffffffffff8211171561066757610666610612565b5b80604052505050565b5f61067961058f565b9050610685828261063f565b919050565b5f67ffffffffffffffff8211156106a4576106a3610612565b5b6106ad82610602565b9050602081019050919050565b828183375f83830152505050565b5f6106da6106d58461068a565b610670565b9050828152602081018484840111156106f6576106f56105fe565b5b6107018482856106ba565b509392505050565b5f82601f83011261071d5761071c6105fa565b5b813561072d8482602086016106c8565b91505092915050565b61073f8161055e565b8114610749575f5ffd5b50565b5f8135905061075a81610736565b92915050565b5f7fffffffffffffffffffffffffffffffffffffffffffff0000000000000000000082169050919050565b61079481610760565b811461079e575f5ffd5b50565b5f813590506107af8161078b565b92915050565b5f5f5f5f5f60a086880312156107ce576107cd610598565b5b5f6107db888289016105e6565b955050602086013567ffffffffffffffff8111156107fc576107fb61059c565b5b61080888828901610709565b94505060406108198882890161074c565b935050606061082a888289016107a1565b925050608086013567ffffffffffffffff81111561084b5761084a61059c565b5b61085788828901610709565b9150509295509295909350565b5f82825260208201905092915050565b7f456d707479207769746864726177616c7320617265206e6f7420616c6c6f77655f8201527f6400000000000000000000000000000000000000000000000000000000000000602082015250565b5f6108ce602183610864565b91506108d982610874565b604082019050919050565b5f6020820190508181035f8301526108fb816108c2565b9050919050565b5f819050919050565b61091c61091782610760565b610902565b82525050565b5f81519050919050565b5f81905092915050565b8281835e5f83830152505050565b5f61094e82610922565b610958818561092c565b9350610968818560208601610936565b80840191505092915050565b5f61097f828561090b565b60168201915061098f8284610944565b91508190509392505050565b6109a4816105bf565b82525050565b5f6060820190506109bd5f830186610567565b6109ca602083018561099b565b6109d76040830184610567565b949350505050565b5f6109ea8284610944565b915081905092915050565b7f4661696c656420746f2064656372656d656e74207469636b65742062616c616e5f8201527f63653a207469636b65745f62616c616e63655f72656d6f76652063616c6c207760208201527f617320756e7375636365737366756c0000000000000000000000000000000000604082015250565b5f610a75604f83610864565b9150610a80826109f5565b606082019050919050565b5f6020820190508181035f830152610aa281610a69565b9050919050565b5f606082019050610abc5f83018661099b565b610ac96020830185610567565b610ad66040830184610567565b949350505050565b7f50726f78792063616c6c206661696c65640000000000000000000000000000005f82015250565b5f610b12601183610864565b9150610b1d82610ade565b602082019050919050565b5f6020820190508181035f830152610b3f81610b06565b9050919050565b5f82825260208201905092915050565b5f610b6082610922565b610b6a8185610b46565b9350610b7a818560208601610936565b610b8381610602565b840191505092915050565b610b9781610760565b82525050565b5f6080820190508181035f830152610bb58187610b56565b9050610bc46020830186610567565b610bd16040830185610b8e565b8181036060830152610be38184610b56565b905095945050505050565b7f4661696c656420746f2070726f64756365206d6573736167653a20707573685f5f8201527f66615f7769746864726177616c5f746f5f6f7574626f782063616c6c20756e7360208201527f75636365737366756c0000000000000000000000000000000000000000000000604082015250565b5f610c6e604983610864565b9150610c7982610bee565b606082019050919050565b5f6020820190508181035f830152610c9b81610c62565b9050919050565b5f604082019050610cb55f830185610567565b610cc26020830184610567565b9392505050565b7f4e487b71000000000000000000000000000000000000000000000000000000005f52601160045260245ffd5b5f610d008261055e565b91507fffffffffffffffffffffffffffffffffffffffffffffffffffffffffffffffff8203610d3257610d31610cc9565b5b60018201905091905056fea2646970667358221220cabc30b1caa3af6cb4e589ee15f1c56fcabbd2d5d9b0d431746df0cd288ed35764736f6c634300081d0033","linkReferences":{}},"methodIdentifiers":{"withdraw(address,bytes,uint256,bytes22,bytes)":"80fc1fe3","withdrawalCounter()":"20d786b5"},"id":0}