{"abi":[{"type":"function","name":"withdraw_base58","inputs":[{"name":"target","type":"string","internalType":"string"}],"outputs":[],"stateMutability":"payable"},{"type":"function","name":"withdrawalCounter","inputs":[],"outputs":[{"name":"","type":"uint256","internalType":"uint256"}],"stateMutability":"view"},{"type":"event","name":"StandardWithdrawalEvent","inputs":[{"name":"amount","type":"uint256","indexed":false,"internalType":"uint256"},{"name":"sender","type":"address","indexed":true,"internalType":"address"},{"name":"withdrawalId","type":"uint256","indexed":false,"internalType":"uint256"}],"anonymous":false}],"bytecode":{"object":"0x6080604052348015600e575f5ffd5b5061099b8061001c5f395ff3fe608060405260043610610028575f3560e01c806320d786b51461002c578063cda4fee214610056575b5f5ffd5b348015610037575f5ffd5b50610040610072565b60405161004d91906103ab565b60405180910390f35b610070600480360381019061006b9190610511565b610077565b005b5f5481565b5f73ff0000000000000000000000000000000000000390505f3490505f64e8d4a5100090505f81836100a991906105b2565b90505f82846100b891906105e2565b90505f84116100fc576040517f08c379a00000000000000000000000000000000000000000000000000000000081526004016100f39061066c565b60405180910390fd5b5f811461013e576040517f08c379a0000000000000000000000000000000000000000000000000000000008152600401610135906106fa565b60405180910390fd5b5f8683604051602401610152929190610768565b6040516020818303038152906040527f7bced8e4000000000000000000000000000000000000000000000000000000007bffffffffffffffffffffffffffffffffffffffffffffffffffffffff19166020820180517bffffffffffffffffffffffffffffffffffffffffffffffffffffffff838183161783525050505090505f8673ffffffffffffffffffffffffffffffffffffffff16826040516101f791906107da565b5f604051808303815f865af19150503d805f8114610230576040519150601f19603f3d011682016040523d82523d5f602084013e610235565b606091505b5050905080610279576040517f08c379a00000000000000000000000000000000000000000000000000000000081526004016102709061083a565b60405180910390fd5b5f5f73ffffffffffffffffffffffffffffffffffffffff168760405161029e9061087b565b5f6040518083038185875af1925050503d805f81146102d8576040519150601f19603f3d011682016040523d82523d5f602084013e6102dd565b606091505b5050905080610321576040517f08c379a0000000000000000000000000000000000000000000000000000000008152600401610318906108d9565b60405180910390fd5b3373ffffffffffffffffffffffffffffffffffffffff167f0217d2f84deede7e64b4ddb96e2a4407ee7348091dc9c33657f0b7cbe44e625e885f5460405161036a9291906108f7565b60405180910390a25f5f8154809291906103839061091e565b9190505550505050505050505050565b5f819050919050565b6103a581610393565b82525050565b5f6020820190506103be5f83018461039c565b92915050565b5f604051905090565b5f5ffd5b5f5ffd5b5f5ffd5b5f5ffd5b5f601f19601f8301169050919050565b7f4e487b71000000000000000000000000000000000000000000000000000000005f52604160045260245ffd5b610423826103dd565b810181811067ffffffffffffffff82111715610442576104416103ed565b5b80604052505050565b5f6104546103c4565b9050610460828261041a565b919050565b5f67ffffffffffffffff82111561047f5761047e6103ed565b5b610488826103dd565b9050602081019050919050565b828183375f83830152505050565b5f6104b56104b084610465565b61044b565b9050828152602081018484840111156104d1576104d06103d9565b5b6104dc848285610495565b509392505050565b5f82601f8301126104f8576104f76103d5565b5b81356105088482602086016104a3565b91505092915050565b5f60208284031215610526576105256103cd565b5b5f82013567ffffffffffffffff811115610543576105426103d1565b5b61054f848285016104e4565b91505092915050565b7f4e487b71000000000000000000000000000000000000000000000000000000005f52601260045260245ffd5b7f4e487b71000000000000000000000000000000000000000000000000000000005f52601160045260245ffd5b5f6105bc82610393565b91506105c783610393565b9250826105d7576105d6610558565b5b828204905092915050565b5f6105ec82610393565b91506105f783610393565b92508261060757610606610558565b5b828206905092915050565b5f82825260208201905092915050565b7f416d6f756e74206973207a65726f0000000000000000000000000000000000005f82015250565b5f610656600e83610612565b915061066182610622565b602082019050919050565b5f6020820190508181035f8301526106838161064a565b9050919050565b7f416d6f756e74206d757374206265206d756c7469706c65206f662031305e31325f8201527f20576569202831206d7574657a29000000000000000000000000000000000000602082015250565b5f6106e4602e83610612565b91506106ef8261068a565b604082019050919050565b5f6020820190508181035f830152610711816106d8565b9050919050565b5f81519050919050565b8281835e5f83830152505050565b5f61073a82610718565b6107448185610612565b9350610754818560208601610722565b61075d816103dd565b840191505092915050565b5f6040820190508181035f8301526107808185610730565b905061078f602083018461039c565b9392505050565b5f81519050919050565b5f81905092915050565b5f6107b482610796565b6107be81856107a0565b93506107ce818560208601610722565b80840191505092915050565b5f6107e582846107aa565b915081905092915050565b7f43616c6c20746f20746865206f7574626f782073656e646572206661696c65645f82015250565b5f610824602083610612565b915061082f826107f0565b602082019050919050565b5f6020820190508181035f83015261085181610818565b9050919050565b50565b5f6108665f836107a0565b915061087182610858565b5f82019050919050565b5f6108858261085b565b9150819050919050565b7f4661696c656420746f206275726e0000000000000000000000000000000000005f82015250565b5f6108c3600e83610612565b91506108ce8261088f565b602082019050919050565b5f6020820190508181035f8301526108f0816108b7565b9050919050565b5f60408201905061090a5f83018561039c565b610917602083018461039c565b9392505050565b5f61092882610393565b91507fffffffffffffffffffffffffffffffffffffffffffffffffffffffffffffffff820361095a57610959610585565b5b60018201905091905056fea2646970667358221220d67e6526cfde4e09de705bb433aca50860217e291c987db0f57c478f8afd5cd364736f6c634300081e0033","linkReferences":{}},"methodIdentifiers":{"withdraw_base58(string)":"cda4fee2","withdrawalCounter()":"20d786b5"},"id":0}