{"abi":[{"type":"function","name":"fast_withdraw_base58","inputs":[{"name":"target","type":"string","internalType":"string"},{"name":"fastWithdrawalContract","type":"string","internalType":"string"},{"name":"payload","type":"bytes","internalType":"bytes"}],"outputs":[],"stateMutability":"payable"},{"type":"function","name":"withdraw_base58","inputs":[{"name":"target","type":"string","internalType":"string"}],"outputs":[],"stateMutability":"payable"},{"type":"function","name":"withdrawalCounter","inputs":[],"outputs":[{"name":"","type":"uint256","internalType":"uint256"}],"stateMutability":"view"},{"type":"event","name":"FastWithdrawal","inputs":[{"name":"receiver","type":"bytes22","indexed":false,"internalType":"bytes22"},{"name":"withdrawalId","type":"uint256","indexed":false,"internalType":"uint256"},{"name":"amount","type":"uint256","indexed":false,"internalType":"uint256"},{"name":"timestamp","type":"uint256","indexed":false,"internalType":"uint256"},{"name":"payload","type":"bytes","indexed":false,"internalType":"bytes"},{"name":"l2Caller","type":"address","indexed":false,"internalType":"address"}],"anonymous":false},{"type":"event","name":"Withdrawal","inputs":[{"name":"amount","type":"uint256","indexed":false,"internalType":"uint256"},{"name":"sender","type":"address","indexed":false,"internalType":"address"},{"name":"receiver","type":"bytes22","indexed":false,"internalType":"bytes22"},{"name":"withdrawalId","type":"uint256","indexed":false,"internalType":"uint256"}],"anonymous":false}],"bytecode":{"object":"0x608060405234601c57600e6020565b610cad61002b8239610cad90f35b6026565b60405190565b5f80fdfe60806040526004361015610013575b61037d565b61001d5f3561004c565b806320d786b51461004757806367a32cd7146100425763cda4fee20361000e57610354565b6102f5565b6100cf565b60e01c90565b60405190565b5f80fd5b5f80fd5b5f91031261006a57565b61005c565b1c90565b90565b61008690600861008b930261006f565b610073565b90565b906100999154610076565b90565b6100a75f5f9061008e565b90565b90565b6100b6906100aa565b9052565b91906100cd905f602085019401906100ad565b565b346100ff576100df366004610060565b6100fb6100ea61009c565b6100f2610052565b918291826100ba565b0390f35b610058565b5f80fd5b5f80fd5b5f80fd5b601f801991011690565b634e487b7160e01b5f52604160045260245ffd5b9061013890610110565b810190811067ffffffffffffffff82111761015257604052565b61011a565b9061016a610163610052565b928361012e565b565b67ffffffffffffffff811161018a57610186602091610110565b0190565b61011a565b90825f939282370152565b909291926101af6101aa8261016c565b610157565b938185526020850190828401116101cb576101c99261018f565b565b61010c565b9080601f830112156101ee578160206101eb9335910161019a565b90565b610108565b67ffffffffffffffff81116102115761020d602091610110565b0190565b61011a565b9092919261022b610226826101f3565b610157565b93818552602085019082840111610247576102459261018f565b565b61010c565b9080601f8301121561026a5781602061026793359101610216565b90565b610108565b916060838303126102eb575f83013567ffffffffffffffff81116102e657826102999185016101d0565b92602081013567ffffffffffffffff81116102e157836102ba9183016101d0565b92604082013567ffffffffffffffff81116102dc576102d9920161024c565b90565b610104565b610104565b610104565b61005c565b5f0190565b61030961030336600461026f565b916107a8565b610311610052565b8061031b816102f0565b0390f35b9060208282031261034f575f82013567ffffffffffffffff811161034a5761034792016101d0565b90565b610104565b61005c565b61036761036236600461031f565b610923565b61036f610052565b80610379816102f0565b0390f35b5f80fd5b5f1c90565b61039261039791610381565b610073565b90565b6103a49054610386565b90565b5190565b60209181520190565b90825f9392825e0152565b6103de6103e76020936103ec936103d5816103a7565b938480936103ab565b958691016103b4565b610110565b0190565b5190565b60209181520190565b61041c61042560209361042a93610413816103f0565b938480936103f4565b958691016103b4565b610110565b0190565b906104736104859597969461046560809561045761047e9560a08801908882035f8a01526103bf565b9086820360208801526103bf565b9084820360408601526103fd565b9660608301906100ad565b01906100ad565b565b90610499610494836101f3565b610157565b918252565b606090565b3d5f146104be576104b33d610487565b903d5f602084013e5b565b6104c661049e565b906104bc565b5f7f43616c6c20746f20746865206f7574626f782073656e646572206661696c6564910152565b6104ff602080926103ab565b610508816104cc565b0190565b6105219060208101905f8183039101526104f3565b90565b1561052b57565b610533610052565b62461bcd60e51b8152806105496004820161050c565b0390fd5b90565b60018060a01b031690565b90565b61057261056d6105779261054d565b61055b565b610550565b90565b6105839061055e565b90565b905090565b6105965f8092610586565b0190565b6105a39061058b565b90565b5f7f4661696c656420746f206275726e000000000000000000000000000000000000910152565b6105da600e6020926103ab565b6105e3816105a6565b0190565b6105fc9060208101905f8183039101526105cd565b90565b1561060657565b61060e610052565b62461bcd60e51b815280610624600482016105e7565b0390fd5b60200190565b69ffffffffffffffffffff191690565b610648905161062e565b90565b1b90565b61066961066461065e836103f0565b92610628565b61063e565b9060168110610677575b5090565b6106939069ffffffffffffffffffff199060160360080261064b565b165f610673565b6106a39061062e565b9052565b6106b090610550565b90565b6106bc906106a7565b9052565b9695939461070761071c966106fd60a0966106f36107149760208e6106ec60c082019a5f83019061069a565b01906100ad565b60408c01906100ad565b60608a01906100ad565b87820360808901526103fd565b9401906106b3565b565b634e487b7160e01b5f52601160045260245ffd5b61073b906100aa565b5f1981146107495760010190565b61071e565b5f1b90565b9061075f5f199161074e565b9181191691161790565b61077d610778610782926100aa565b61055b565b6100aa565b90565b90565b9061079d6107986107a492610769565b610785565b8254610753565b9055565b5f8061085b92600360ff60981b019061080734966107f86107c889610c10565b9391938a906107d68861039a565b916107df610052565b968795600460208801631be3287960e31b81520161042e565b6020820181038252038261012e565b82602082019151925af161082261081c6104a3565b91610524565b6108565f806108308161057a565b86610839610052565b90816108448161059a565b03925af16108506104a3565b506105ff565b61064f565b6108a06108675f61039a565b9293429033917f62e8e01e31b83084b97c32b1b11ad5a2042382f5f65ee4106ad4a0d0f8b9942c96610897610052565b968796876106c0565b0390a16108bd6108b76108b25f61039a565b610732565b5f610788565b565b929160206108db6108e39360408701908782035f8901526103bf565b9401906100ad565b565b61091a61092194610910606094989795610906608086019a5f8701906100ad565b60208501906106b3565b604083019061069a565b01906100ad565b565b5f80600360ff60981b01349361096f61093b86610c10565b91610960610947610052565b938492600460208501631ef3b63960e21b8152016108bf565b6020820181038252038261012e565b82602082019151925af19061098b6109856104a3565b92610524565b6109bf5f806109998161057a565b846109a2610052565b90816109ad8161059a565b03925af16109b96104a3565b506105ff565b906109ca339161064f565b91610a0a6109d75f61039a565b7f2d5ad793181f5b6bd727c0c216461e019ecfe466353fdde9ccf813f45b84fa8294610a01610052565b948594856108e5565b0390a1610a27610a21610a1c5f61039a565b610732565b5f610788565b565b5f90565b90565b610a44610a3f610a4992610a2d565b61055b565b6100aa565b90565b634e487b7160e01b5f52601260045260245ffd5b610a6c610a72916100aa565b916100aa565b908115610a7d570490565b610a4c565b610a8e610a94916100aa565b916100aa565b908115610a9f570690565b610a4c565b610ab8610ab3610abd9261054d565b61055b565b6100aa565b90565b5f7f416d6f756e74206973207a65726f000000000000000000000000000000000000910152565b610af4600e6020926103ab565b610afd81610ac0565b0190565b610b169060208101905f818303910152610ae7565b90565b15610b2057565b610b28610052565b62461bcd60e51b815280610b3e60048201610b01565b0390fd5b60407f657a290000000000000000000000000000000000000000000000000000000000917f526f756e64696e6720776f756c64206c6f7365207765692c20616d6f756e74205f8201527f6d757374206265206d756c7469706c65206f662031305e3132202831206d757460208201520152565b610bc260436060926103ab565b610bcb81610b42565b0190565b610be49060208101905f818303910152610bb5565b90565b15610bee57565b610bf6610052565b62461bcd60e51b815280610c0c60048201610bcf565b0390fd5b610c18610a29565b50610c74610c2a64e8d4a51000610a30565b91610c5c610c43610c3c838690610a60565b9483610a82565b91610c56610c505f610aa4565b916100aa565b11610b19565b610c6e610c685f610aa4565b916100aa565b14610be7565b9056fea2646970667358221220b26e324be1a2c67a6322423890fa4c5e87e299021f0e3d1c85c8c00e5c0e42b964736f6c634300081d0033","linkReferences":{}},"methodIdentifiers":{"fast_withdraw_base58(string,string,bytes)":"67a32cd7","withdraw_base58(string)":"cda4fee2","withdrawalCounter()":"20d786b5"},"id":0}