{"abi":[{"type":"function","name":"withdraw_base58","inputs":[{"name":"ticketer","type":"bytes22","internalType":"bytes22"},{"name":"target","type":"bytes22","internalType":"bytes22"}],"outputs":[],"stateMutability":"payable"},{"type":"function","name":"withdrawalCounter","inputs":[],"outputs":[{"name":"","type":"uint256","internalType":"uint256"}],"stateMutability":"view"},{"type":"event","name":"StandardWithdrawalEvent","inputs":[{"name":"amount","type":"uint256","indexed":false,"internalType":"uint256"},{"name":"sender","type":"address","indexed":true,"internalType":"address"},{"name":"receiver","type":"bytes22","indexed":false,"internalType":"bytes22"},{"name":"withdrawalId","type":"uint256","indexed":false,"internalType":"uint256"}],"anonymous":false}],"bytecode":{"object":"0x6080604052348015600e575f5ffd5b506108858061001c5f395ff3fe608060405260043610610028575f3560e01c8063081952b31461002c57806320d786b514610048575b5f5ffd5b610046600480360381019061004191906103f1565b610072565b005b348015610053575f5ffd5b5061005c610393565b6040516100699190610447565b60405180910390f35b5f73ff0000000000000000000000000000000000000390505f3490505f64e8d4a5100090505f81836100a491906104ba565b90505f82846100b391906104ea565b90505f84116100f7576040517f08c379a00000000000000000000000000000000000000000000000000000000081526004016100ee90610574565b60405180910390fd5b5f8114610139576040517f08c379a000000000000000000000000000000000000000000000000000000000815260040161013090610602565b60405180910390fd5b5f87878460405160240161014f9392919061062f565b6040516020818303038152906040527f0c22d28f000000000000000000000000000000000000000000000000000000007bffffffffffffffffffffffffffffffffffffffffffffffffffffffff19166020820180517bffffffffffffffffffffffffffffffffffffffffffffffffffffffff838183161783525050505090505f8673ffffffffffffffffffffffffffffffffffffffff16826040516101f491906106b6565b5f604051808303815f865af19150503d805f811461022d576040519150601f19603f3d011682016040523d82523d5f602084013e610232565b606091505b5050905080610276576040517f08c379a000000000000000000000000000000000000000000000000000000000815260040161026d90610716565b60405180910390fd5b5f5f73ffffffffffffffffffffffffffffffffffffffff168760405161029b90610757565b5f6040518083038185875af1925050503d805f81146102d5576040519150601f19603f3d011682016040523d82523d5f602084013e6102da565b606091505b505090508061031e576040517f08c379a0000000000000000000000000000000000000000000000000000000008152600401610315906107b5565b60405180910390fd5b3373ffffffffffffffffffffffffffffffffffffffff167f6e2eed6f347a532891018569e6007e86bfb640d634368e655e70448db212dde9888b5f54604051610369939291906107d3565b60405180910390a25f5f81548092919061038290610808565b919050555050505050505050505050565b5f5481565b5f5ffd5b5f7fffffffffffffffffffffffffffffffffffffffffffff0000000000000000000082169050919050565b6103d08161039c565b81146103da575f5ffd5b50565b5f813590506103eb816103c7565b92915050565b5f5f6040838503121561040757610406610398565b5b5f610414858286016103dd565b9250506020610425858286016103dd565b9150509250929050565b5f819050919050565b6104418161042f565b82525050565b5f60208201905061045a5f830184610438565b92915050565b7f4e487b71000000000000000000000000000000000000000000000000000000005f52601260045260245ffd5b7f4e487b71000000000000000000000000000000000000000000000000000000005f52601160045260245ffd5b5f6104c48261042f565b91506104cf8361042f565b9250826104df576104de610460565b5b828204905092915050565b5f6104f48261042f565b91506104ff8361042f565b92508261050f5761050e610460565b5b828206905092915050565b5f82825260208201905092915050565b7f416d6f756e74206973207a65726f0000000000000000000000000000000000005f82015250565b5f61055e600e8361051a565b91506105698261052a565b602082019050919050565b5f6020820190508181035f83015261058b81610552565b9050919050565b7f416d6f756e74206d757374206265206d756c7469706c65206f662031305e31325f8201527f20576569202831206d7574657a29000000000000000000000000000000000000602082015250565b5f6105ec602e8361051a565b91506105f782610592565b604082019050919050565b5f6020820190508181035f830152610619816105e0565b9050919050565b6106298161039c565b82525050565b5f6060820190506106425f830186610620565b61064f6020830185610620565b61065c6040830184610438565b949350505050565b5f81519050919050565b5f81905092915050565b8281835e5f83830152505050565b5f61069082610664565b61069a818561066e565b93506106aa818560208601610678565b80840191505092915050565b5f6106c18284610686565b915081905092915050565b7f43616c6c20746f20746865206f7574626f782073656e646572206661696c65645f82015250565b5f61070060208361051a565b915061070b826106cc565b602082019050919050565b5f6020820190508181035f83015261072d816106f4565b9050919050565b50565b5f6107425f8361066e565b915061074d82610734565b5f82019050919050565b5f61076182610737565b9150819050919050565b7f4661696c656420746f206275726e0000000000000000000000000000000000005f82015250565b5f61079f600e8361051a565b91506107aa8261076b565b602082019050919050565b5f6020820190508181035f8301526107cc81610793565b9050919050565b5f6060820190506107e65f830186610438565b6107f36020830185610620565b6108006040830184610438565b949350505050565b5f6108128261042f565b91507fffffffffffffffffffffffffffffffffffffffffffffffffffffffffffffffff82036108445761084361048d565b5b60018201905091905056fea264697066735822122089b76f1560a7c34832ab3d6b1e399edddffd8055b7c5d94f08329a2651731e7864736f6c634300081d0033","linkReferences":{}},"methodIdentifiers":{"withdraw_base58(bytes22,bytes22)":"081952b3","withdrawalCounter()":"20d786b5"},"id":0}